:020000040800F2
:1000000000000120FD240008592400085D24000898
:10001000612400086524000869240008000000002D
:100020000000000000000000000000006D24000837
:1000300071240008000000007524000879240008DD
:100040004D2500084D2500084D2500084D250008C8
:100050004D2500084D2500084D2500084D250008B8
:100060004D2500084D2500084D2500084D250008A8
:100070004D2500084D2500084D2500084D25000898
:100080004D2500084D2500084D2500084D25000888
:100090004D2500084D2500084D2500087D24000849
:1000A0004D2500084D2500084D2500084D25000868
:1000B0004D2500084D2500084D2500084D25000858
:1000C0004D2500084D2500084D2500084D25000848
:1000D0004D2500084D2500084D2500084D25000838
:1000E000852400084D2500084D2500084D250008F1
:1000F0004D2500084D2500084D2500084D25000818
:100100004D25000800000000000000004D250008FB
:100110004D2500084D2500084D2500084D250008F7
:100120004D2500084D2500084D2500084D250008E7
:100130004D2500084D2500080000000000000000CB
:100140004D2500084D2500084D2500080000000041
:10015000000000000000000000000000000000009F
:100160004D2500084D2500084D2500084D250008A7
:100170004D2500084D2500084D2500084D25000897
:100180004D2500084D25000800000000000000007B
:040190004D250008F1
:1001940010B5054C237833B9044B13B10448AFF3BD
:1001A40000800123237010BD0C000020000000001B
:1001B400A825000808B5034B1BB103490348AFF356
:1001C400008008BD0000000010000020A8250008E1
:1001D40038B50E4A0E4B12781B6805464FF47A70F8
:1001E400B0FBF2F0B3FBF0F000F0A0F808B90F2D6B
:1001F40001D9012038BD0446024629464FF0FF309C
:1002040000F052F8034B20461D6038BD000000206A
:100214000800002004000020074A08B5136843F0D2
:1002240010031360032000F02DF80020FFF7D0FF27
:1002340002F052F8002008BD00200240034A044B9B
:1002440011681B780B441360704700BF48000020FE
:1002540000000020014B1868704700BF48000020D0
:1002640038B50446FFF7F6FF631C054602D0044B7D
:100274001B781C44FFF7EEFF401B8442FAD838BDBC
:1002840000000020074AD3684FF6FF010B4000022C
:1002940043F0BF6300F4E06043F400330343D360EE
:1002A400704700BF00ED00E0184B70B4DC68C4F385
:1002B4000224C4F10706042E04F1040328BF042613
:1002C400062B17D9033C0125A540013D2A400123F3
:1002D400B340013B1940A140002841EA02010CDB74
:1002E40000F1604000F561400901C9B280F80013D3
:1002F40070BC704700221446E9E7054B00F00F007C
:1003040009010344C9B2197670BC704700ED00E0DE
:10031400FCEC00E000F01F0101234009024A8B407D
:1003240042F82030704700BF00E100E00138B0F12E
:10033400807F0ED2084B10B4084C5860F02084F82B
:1003440023000022072110469A6019605DF8044BCF
:1003540070470120704700BF10E000E000ED00E0AE
:100364008C460968002900F0F2802DE9F04FDFF88F
:10037400FCE183B000254FF0010883E04FEA450912
:100384000323D0F800B003FA09F3DB4304F00306B7
:100394000BEA030B06FA09F60AF1FF3A46EA0B06E2
:1003A400BAF1010F066040F2A280C668DCF80820AA
:1003B400334002FA09F21A43E300C2605ED5644B8B
:1003C400634A9B6943F001039361936925F0030633
:1003D40006F1804603F0010306F58036019305F02B
:1003E4000303019AD6F808909B000F229A40B0F1BB
:1003F400904F29EA020A00F09180564A904200F098
:100404008F80554A904200F08E80544A904200F00A
:100414008F80534A904200F09080524A904200F0FC
:100424009180514A90420CBF4FF006094FF00709E2
:1004340009FA03F343EA0A03B360DEF80030FA432F
:10044400E60354BF13403B43CEF80030DEF80430DB
:10045400A60354BF13403B43CEF80430DEF8083003
:10046400E60254BF13403B43CEF80830DEF80C30AC
:10047400A40254BF13403B43CEF80C30013531FA8B
:1004840005F348D008FA05F212EA0107F6D0DCF8C1
:10049400044024F0100ABAF1020F7FF46FAF4FEA60
:1004A400D50900EB890905F00703D9F820609B0002
:1004B4004FF00F0B0BFA03FB26EA0B0ADCF8106073
:1004C40006FA03F343EA0A03C9F820304FEA450960
:1004D4000323D0F800A003FA09F3DB4304F0030676
:1004E40003EA0A0A06FA09F646EA0A060660866874
:1004F40006EA030ADCF80C6006FA09F646EA0A067C
:100504008660D0F804A0C4F300162AEA0202AE40C2
:100514001643466049E703B0BDE8F08F002389E73E
:1005240008FA03F386E74FF0020909FA03F381E7B7
:100534004FF0030909FA03F37CE74FF0040909FAC1
:1005440003F377E74FF0050909FA03F372E77047FD
:10055400001002400004004800080048000C004855
:10056400001000480014004800180048000401402E
:100574000369194214BF0120002070470AB981623F
:1005840070478161704700BF4369594041617047BA
:10059400044A5169014200D1704708B5506101F025
:1005A40089FE08BD000401402DE9F0430368DF071C
:1005B40083B004463DD5BB494A6802F00C02042AC4
:1005C40000F07D814A6802F00C02082A00F0708174
:1005D4006368B3F5803F00F01382002B00F0928132
:1005E400B3F5A02F00F09982AE4B1A6822F4803242
:1005F4001A601A6822F480221A60FFF72BFE4FF467
:1006040000380746A74E012505E0FFF723FEC01B6F
:10061400642800F2BB8198FAA8F3326898FAA8F328
:10062400B3FA83F303F01F0305FA03F31342ECD088
:1006340023689E0742D59B4A516811F00C0F00F0C5
:10064400F180516801F00C01082900F0E480E268AF
:10065400002A00F0DB81012292FAA2F3B3FA83F3B9
:1006640003F1845303F584139B0016461A60FFF7C5
:10067400F1FD4FF0020807468A4D05E0FFF7EAFD59
:10068400C01B022800F2828198FAA8F32A6898FA1B
:10069400A8F3B3FA83F303F01F0306FA03F3134238
:1006A400ECD02968F82292FAA2F22369B2FA82F213
:1006B40021F0F80193400B432B6023681D0746D4B7
:1006C400580772D5774BDA69D10040F10F814FF0AA
:1006D4000008754D2B68DA0540F14881A368012BA9
:1006E40000F0BA81002B00F05F81052B6D4B1A6A74
:1006F40000F0208222F001021A621A6A22F0040237
:100704001A62FFF7A7FD4FF002090746654E01255F
:1007140015E099FAA9F3726A99FAA9F3B3FA83F383
:1007240003F01F0305FA03F3134240F03381FFF78C
:1007340091FD41F28833C01B984200F2278199FA57
:10074400A9F399FAA9F3002BE3D0326AE4E76269CA
:10075400002A7FD0012292FAA2F1544B514EB1FAF1
:1007640081F10B449B0015461A60FFF773FD4FF0AF
:100774000208074605E0FFF76DFDC01B022800F2E2
:10078400058198FAA8F398FAA8F398FAA8F3726A7C
:1007940098FAA8F3B3FA83F303F01F0305FA03F3FB
:1007A4001342E8D0236858078CD4A3697BB33D4D2A
:1007B4006A6802F00C02082A48D0022B4FF08073BA
:1007C40000F0508193FAA3F3B3FA83F303F1845353
:1007D40003F584139B0000221A60FFF73BFD4FF0E2
:1007E40000740746012605E0FFF734FDC01B02280C
:1007F40000F2CC8094FAA4F32A6894FAA4F3B3FA2E
:1008040083F303F01F0306FA03F31342ECD1002031
:1008140003B0BDE8F083526802F4C032B2F5004F71
:100824007FF415AF022292FAA2F11E49086892FAE7
:10083400A2F2B2FA82F202F01F02012101FA02F2DC
:10084400024200F08280E2688A427ED0012003B036
:10085400BDE8F083012595FAA5F1144B114EB1FAC8
:1008640081F10B449B004FF002081A60FFF7F2FC81
:10087400074605E0FFF7EEFCC01B022800F2868065
:1008840098FAA8F398FAA8F398FAA8F3726A98FA6F
:10089400A8F3B3FA83F303F01F0305FA03F3134237
:1008A400E8D17FE7001002400070004020819010E2
:1008B4004A6802F4C032B2F5803F7FF489AE4FF447
:1008C400003292FAA2F19F49086892FAA2F2B2FAAF
:1008D40082F202F01F02012101FA02F202423FF405
:1008E400A8AE6268002A7FF4A4AEAFE7DA6942F0EA
:1008F4008052DA61DB6903F080530193019B4FF06E
:100904000108E6E68F4D2B6823F480332B602B68B7
:1009140023F480232B60FFF79DFC4FF40038074637
:10092400012604E0FFF796FCC01B64282ED898FA31
:10093400A8F32A6898FAA8F3B3FA83F303F01F0321
:1009440006FA03F31342EDD172E67E4DF8212868CE
:1009540091FAA1F12269B1FA81F120F0F8008A40FC
:1009640002432A601D077FF5ABAEF0E62B6843F423
:1009740080732B60FFF76EFC06462B68DB053FF5A2
:10098400ADAEFFF767FC801B6428F6D9032003B0E3
:10099400BDE8F083B8F1000F3FF407AF694AD369AB
:1009A40023F08053D36100E7664D2B6A23F00103E3
:1009B4002B622B6A23F004032B62FFF74BFC4FF0EE
:1009C40002090746012613E099FAA9F36A6A99FA1B
:1009D400A9F3B3FA83F303F01F0306FA03F31342F4
:1009E400D8D0FFF737FC41F28833C01B9842CDD8EA
:1009F40099FAA9F399FAA9F3002BE5D02A6AE6E754
:100A0400504A136843F480331360F6E5012595FAE0
:100A1400A5F3B3FA83F303F1845303F584139B0022
:100A24004FF002081A60FFF715FC464E074604E033
:100A3400FFF710FCC01B0228A8D898FAA8F3326864
:100A440098FAA8F3B3FA83F303F01F0305FA03F348
:100A54001342EDD1236831E63A4A136A43F00103A5
:100A640013624EE693FAA3F3B3FA83F303F18453C8
:100A740003F584139B0000221A60FFF7EBFB4FF091
:100A840000780746012605E0FFF7E4FBC01B0228B7
:100A94003FF67CAF98FAA8F32A6898FAA8F3B3FA59
:100AA40083F303F01F0306FA03F31342ECD1EB6A5A
:100AB400626A23F00F031343EB626A68236AE169F5
:100AC40022F476120B4313436B604FF0807393FA56
:100AD400A3F3B3FA83F303F1845303F584139B0064
:100AE4004FF000741E60FFF7B5FB164E0746012554
:100AF40005E0FFF7AFFBC01B02283FF647AF94FAAF
:100B0400A4F3326894FAA4F3B3FA83F303F01F0353
:100B140005FA03F31342ECD079E603F18043A3F51D
:100B24003C331A6842F480221A601A6842F4803214
:100B34001A6062E542F004021A621A6A42F0010283
:100B44001A62DEE500100240124A536803F00C01F9
:100B540008291DD130B44FF4701090FAA0F00F2181
:100B6400B0FA80F0D26A91FAA1F103F47013C34091
:100B740009480A4DC05C0A4CB1FA81F102F00F0336
:100B8400CB40EB5CB4FBF3F330BC00FB03F07047E9
:100B94000348704700100240C0250008D025000813
:100BA40000127A005F4A136803F007038B420BD2EA
:100BB400136823F007030B431360136803F0070360
:100BC400994201D00120704703682DE9F0419C0748
:100BD40006D5554C8568626822F0F0022A436260AB
:100BE4000C46D907064631D54268012A00F08780B1
:100BF400022A0CBF4FF00073022393FAA3F14A496F
:100C0400086893FAA3F3B3FA83F303F01F030121F3
:100C140001FA03F3034229D0434D6B6823F0030325
:100C240013436B60FFF716FB7368012B074641F211
:100C3400883823D0022B05D158E0FFF70BFBC01BEB
:100C4400404559D86B6813F00C0FF6D1354A136838
:100C540003F007039C4217D2136823F007032343CE
:100C64001360136803F007039C420DD00120BDE814
:100C7400F081FFF7EFFAC01B40453DD86B6803F0E5
:100C84000C03042BF5D1E1E733685A0706D526494E
:100C9400F0684A6822F4E06202434A601B0707D501
:100CA400214A3169536823F4605343EAC103536012
:100CB400FFF74AFF1C4B0146F0225B6892FAA2F24E
:100CC400B2FA82F203F0F003D3401848184AC35C26
:100CD400002021FA03F31360FFF77AFA0020BDE83D
:100CE400F081FFF7B7FAC01B404505D86B6803F0E5
:100CF4000C03082BF5D1A9E70320BDE8F0814FF4DC
:100D0400003393FAA3F10849096893FAA3F3B3FAF9
:100D140083F303F01F0302FA03F30B427FF47CAF67
:100D2400A4E700BF0020024000100240E4250008B0
:100D340008000020084B4FF4E0625B6892FAA2F2CC
:100D4400B2FA82F203F4E063D3400449044ACB5C70
:100D54001068D840704700BF00100240F425000816
:100D640008000020084B4FF460525B6892FAA2F22C
:100D7400B2FA82F203F46053D3400449044ACB5CD0
:100D84001068D840704700BF00100240F4250008E6
:100D9400080000202DE9F04304460068C60383B030
:100DA4003CD5A14BDA69D50040F1F2809F4D2B6808
:100DB400D8054FF0000640F1FB809B4D2B6A13F4DD
:100DC400407320D0616801F4407293421CD0296AB8
:100DD4004FF4803321F4407093FAA3F2944FB2FAA3
:100DE40082F23A4492004FF0010EC2F800E093FA06
:100DF400A3F3B3FA83F33B449B0000221A60CA07AF
:100E0400286200F1EC806168874A136A23F4407316
:100E14000B431362002E40F0DD802068C30706D523
:100E2400814AA168136B23F003030B431363870701
:100E340006D57D4AE168136B23F440330B431363F7
:100E4400460706D5784A2169136B23F440230B43E4
:100E54001363850606D5744AE169136B23F0100306
:100E64000B431363810306D56F4A616D536823F402
:100E740080030B435360420606D56B4A216A136B09
:100E840023F020030B431363430306D5664A616AC8
:100E9400136B23F040030B431363070706D5624A21
:100EA4006169136B23F440130B431363C60606D521
:100EB4005D4AA169136B23F440030B431363850557
:100EC40006D5594A216B536823F400030B4353603E
:100ED400010606D5544AA16AD36A23F4F8730B4376
:100EE400D362C20506D5504AE16AD36A23F4785323
:100EF4000B43D362C30406D54B4A616B136B23F4D3
:100F040080730B431363870406D5474A216C136B24
:100F140023F400730B431363C60206D5424AA16B44
:100F2400136B23F080730B431363850206D53E4A8B
:100F3400E16B136B23F000730B431363410206D57B
:100F4400394A616C136B23F480630B43136302020D
:100F540006D5354AA16C136B23F400630B4313636A
:100F6400C3010DD410F0007007D02F4A216D136B0C
:100F740023F400430B431363002003B0BDE8F08364
:100F8400294AE16C136B23F400530B431363E9E721
:100F9400DA69264D42F08052DA61DB6903F080534E
:100FA4000193019B2B68D8054FF001063FF505AF6F
:100FB4002B6843F480732B60FFF74CF907462B68CA
:100FC400D9053FF5FAAEFFF745F9C01B6428F6D9F9
:100FD4000320D2E7D36923F08053D3611DE777461A
:100FE400FFF738F94FF00209804615E099FAA9F3A2
:100FF4006A6A99FAA9F3B3FA83F303F01F0307FAB1
:1010040003F313427FF4FFAEFFF724F941F2883370
:10101400A0EB08009842DBD899FAA9F399FAA9F34E
:10102400002BE3D02A6AE4E700100240007000407D
:1010340000819010704700BF03680122186A02FA09
:1010440001F120EA010010B418621A6A114C11432C
:10105400A342196212D0104A93420FD002F54062A3
:1010640093420BD002F58062934207D002F580626E
:10107400934203D002F50062934203D15A6C42F4C6
:1010840000425A641A685DF8044B42F001020020E1
:101094001A607047002C01400034014090F83C3045
:1010A400012B40D002220368F0B480F83D209D68F3
:1010B4000C685D4A402C02EA05024FF0010580F8F5
:1010C4003C509A6079D018D9702C62D02DD9B4F5DF
:1010D400805F57D0B4F5005F1CD18A684D68CC6836
:1010E40099682A4342EA042221F47F410A439A6020
:1010F4009A6842F480429A600CE0102C32D038D9BD
:10110400202C72D0302C05D19A6822F0700242F063
:1011140037029A600023012280F83D2080F83C3099
:10112400F0BC1846704702207047502C64D0602CE5
:10113400F0D11C6A4D68CE6824F010041C629969D1
:101144001A6A21F4704122F0A00242EA051241EA2F
:10115400063199611A629A6822F0700242F06702BD
:101164009A60D7E79A6822F0700242F017029A60F8
:10117400D0E7002CCED19A6822F0700242F0070228
:101184009A60C7E79A6822F4803222F007029A60D4
:10119400C0E78A684D68CC6899682A4342EA042209
:1011A40021F47F410A439A609A6822F4803222F043
:1011B400770242F077029A60ACE71D6A1E6A4C68B7
:1011C400CF6826F001061E629A6925F00A0122F012
:1011D400F00242EA071221439A6119629A6822F0E6
:1011E400700242F047029A6094E79A6822F0700213
:1011F40042F027029A608DE71D6A1E6A4C68CF6828
:1012040026F001061E629A6925F00A0122F0F00216
:1012140042EA071221439A6119629A6822F0700225
:1012240042F057029A6075E78800FEFF454A03685A
:101234009042F0B467D0B0F1804F6BD0A2F59432F5
:10124400904227D002F58062904223D002F5963274
:1012540090421FD002F5E05290426DD0A2F5805228
:10126400904240D0384A90423DD002F5806290428C
:1012740039D002F50062904235D04D698C680A6815
:1012840023F080032B430360C46282620123436121
:10129400F0BC70474A68CE684C698F680D6823F0CB
:1012A4007003134323F44073284A334323F0800329
:1012B400234390420360C76285620ED0244B984258
:1012C4000BD003F58063984207D003F580639842FE
:1012D40003D003F500639842D8D10B69036301235B
:1012E4004361F0BC7047CC684A6923F440732343DC
:1012F40023F08003134303608B68C3620B6883622B
:101304000B690363EBE74D68CC684A6923F070030B
:101314002B43EAE74E68CC684A698F680D6823F06E
:101324007003334323F44073234323F080031343B4
:101334000360C7628562C1E74A6823F07003134300
:1013440090E700BF002C01400044014000340140FC
:1013540000400140B8B190F83D3010B503F0FF02F1
:1013640004465BB1022384F83D302068211DFFF759
:101374005DFF012384F83D30002010BD80F83C203F
:1013840000F0C2FFEEE70120704700BFB8B190F84B
:101394003D3010B503F0FF0204465BB1022384F82C
:1013A4003D302068211DFFF741FF012384F83D30C3
:1013B400002010BD80F83C20FFF73CFEEEE7012042
:1013C400704700BFF0B4046A8F680E681C4D24F0A7
:1013D40001040462036A4468826922F4803223F0BF
:1013E400020322F07302A84243EA070342EA060218
:1013F40013D005F50065A8420FD005F54065A84255
:101404000BD005F58065A84207D005F58065A84294
:1014140003D005F50065A8420BD1CD688E6923F091
:1014240008032B434D6924F44074354323F004032B
:101434002C43496844608261F0BC41630362704795
:10144400002C0140F0B4046A8F680E68234D24F028
:1014540010040462036A4468826922F0807223F0F3
:10146400200322F4E642A84243EA071342EA062292
:1014740024D005F50065A84220D005F5E055A84222
:1014840024D0A5F58055A8420AD0154DA84207D00E
:1014940005F58065A84203D005F50065A84206D18C
:1014A4004D698E6924F44064354344EA85044968EF
:1014B40044608261F0BC816303627047CD6823F0AD
:1014C400800343EA051323F04003E9E7CD6823F0E2
:1014D400800343EA051323F04003D6E7002C0140C0
:1014E40000440140F0B4046A8F680E68234D24F46C
:1014F40080740462036A4468C26922F4803223F46B
:10150400007322F07302A84243EA072342EA060268
:1015140024D005F50065A84220D005F5E055A84281
:1015240024D0A5F58055A8420AD0154DA84207D06D
:1015340005F58065A84203D005F50065A84206D1EB
:101544004D698E6924F44054354344EA05144968CE
:101554004460C261F0BCC16303627047CD6823F488
:10156400006343EA052323F48063E9E7CD6823F4A9
:10157400006343EA052323F48063D6E7002C01408B
:1015840000440140F0B4046A8F680E68194D24F4D5
:1015940080540462026A4468C36923F0807322F4AD
:1015A400005223F4E643A84242EA073243EA062300
:1015B40013D005F50065A8420FD005F54065A84293
:1015C4000BD005F58065A84207D005F58065A842D3
:1015D40003D005F50065A84204D14D6924F4804484
:1015E40044EA851449684460C361F0BC0164026242
:1015F400704700BF002C0140F0B4046A8F680E6885
:10160400194D24F480340462026A4468436D23F45F
:10161400803322F4003223F07003A84242EA0742E6
:1016240043EA060313D005F50065A8420FD005F57B
:101634004065A8420BD005F58065A84207D005F5A2
:101644008065A84203D005F50065A84204D14D6920
:1016540024F4803444EA0524496844604365F0BCBA
:1016640081650262704700BF002C0140F0B4046A37
:101674008F680E68194D24F480140462026A446869
:10168400436D23F0807322F4001223F4E043A84254
:1016940042EA075243EA062313D005F50065A8423F
:1016A4000FD005F54065A8420BD005F58065A8422A
:1016B40007D005F58065A84203D005F50065A8426A
:1016C40004D14D6924F4802444EA852449684460A3
:1016D4004365F0BCC1650262704700BF002C014045
:1016E40038B590F83C30012B2FD00D460223012150
:1016F400044680F83C1080F83D30142A1ED8DFE8F8
:1017040002F0391D1D1D4B1D1D1D5E1D1D1D0B1DD4
:101714001D1D701D1D1D260029460068FFF732FFA0
:1017240023682869D96941F40061D961D96921F430
:101734008061D961DA6942EA0022DA61012300207A
:1017440084F83D3084F83C0038BD022038BD294679
:101754000068FFF78BFF23682869596D41F4006125
:101764005965596D21F4806159655A6D42EA002228
:101774005A65E3E729460068FFF724FE23682869D1
:10178400996941F008019961996921F0040199610D
:101794009A6902439A61D1E729460068FFF752FE2D
:1017A40023682869996941F400619961996921F470
:1017B400806199619A6942EA00229A61BEE72946EA
:1017C4000068FFF78FFE23682869D96941F0080192
:1017D400D961D96921F00401D961DA690243DA6176
:1017E400ACE729460068FFF707FF23682869596DAD
:1017F40041F008015965596D21F0040159655A6D8C
:1018040002435A659AE700BF90F83C30012B23D07D
:10181400036870B4124D5A689C68AB4217D005F542
:101824000065AB4213D005F5E055AB420FD00E680E
:101834008D6822F0700224F0800132430024294391
:101844005A60996080F83C40204670BC70474D68EF
:1018540022F470022A43EAE702221046704700BFCE
:10186400002C0140F8B50468076983684669C169BA
:101874008D4A05463B4320682F6A334302400B439D
:10188400134323606268EE68AB69884822F44052CF
:1018940032436260A2683B4322F4306213438442C1
:1018A400A3603FD0824B9C425ED0824B9C426BD063
:1018B400814B9C421AD0814B9C4205D0B1F5004F1C
:1018C40000F0CA800120F8BD03F5E0331B6B03F47C
:1018D4004003B3F5800F00F0858010D9B3F5000FF5
:1018E4005ED0B3F5400F00F08A80E7E703F5E233FA
:1018F4001B6B03F44013B3F5801F5ED078D8002B24
:10190400DCD1B1F5004F02D1FFF714FA5AE0FFF72A
:1019140011FA6B6800EB5300B0FBF3F080B2E060A7
:101924000020F8BD664B674A1B6B03F00303B1F557
:10193400004FD35C40F09380082B00F28D8001A20D
:1019440052F823F00D190008211A00084B1A000858
:101954005D1A0008C51900085D1A00085D1A000820
:101964005D1A00082F1A000803F5E6331B6B03F415
:101974004033B3F5803F20D0C1D9B3F5003F0FD039
:10198400B3F5403F3BD099E703F5E4331B6B03F415
:101994004023B3F5802F10D0B1D9B3F5002F40D137
:1019A400B1F5004F41D06A68530803F50043B3FB17
:1019B400F2F39BB2E3600020F8BDB1F5004F14D1FF
:1019C400FFF7C2F86A682C68530803EB4000B0FBC9
:1019D400F2F0C0F3420320F00F0003439BB2002057
:1019E400E360F8BDB1F5004FEAD0FFF7ADF890E73A
:1019F400B3F5001FD4D0B3F5401F7FF45FAFB1F54A
:101A0400004F20D06A68530803F5F40303F590539C
:101A1400B3FBF2F39BB2E3600020F8BDFFF7A2F939
:101A2400D0E7B3F5402FEAD048E76B685A0802F5CF
:101A34008032B2FBF3F2C2F3420322F00F021343EB
:101A44009BB20020CCE76A68530803F5740303F5DE
:101A54001053B3FBF2F2EEE700230120C0E7082B9A
:101A64003FF630AF01A252F823F000BF131900086B
:101A7400951A0008091A0008C9180008EF19000887
:101A8400C9180008C9180008C9180008AB190008CB
:101A9400FFF768F96B68054A00EB5300B0FBF3F0FD
:101AA40080B2D0600020F8BDF369FFEF0038014038
:101AB4000044004000480040004C004000500040FA
:101AC40000100240E0250008436ADA0710B406D586
:101AD4000168846A4A6822F4003222434A609C07FF
:101AE40006D50168C46A4A6822F4803222434A60F7
:101AF400590706D50168046B4A6822F48022224300
:101B04004A601A0706D50168446B4A6822F4004209
:101B140022434A60DC0606D50168846B8A6822F495
:101B2400805222438A60990606D50168C46B8A688C
:101B340022F4005222438A605A0609D50168046CD3
:101B44004A6822F480122243B4F5801F4A600BD005
:101B54001B0606D50268816C536823F400230B43EB
:101B640053605DF8044B70474A68446C22F4C00229
:101B740022434A60ECE700BF2DE9F843089D804604
:101B84000F4616469946D8F8004001E06B1C0AD16E
:101B9400E06937EA00030CBF01200020B042F5D011
:101BA4000020BDE8F8833DB1FEF754FBA0EB09002B
:101BB4008542E8D2D8F80040236823F4D073236028
:101BC400A368202223F001030021A360032088F8E6
:101BD400692088F8681088F86A20BDE8F88300BF97
:101BE40070B50446002582B0C566FEF733FB236852
:101BF4001A68120706460CD41B685B0717D4202307
:101C0400002084F8693084F8680084F86A3002B0EF
:101C140070BD6FF07E4300932A4603464FF40011D3
:101C24002046FFF7A9FF80B1032002B070BD6FF01A
:101C34007E420092334600224FF480012046FFF793
:101C44009BFF0028DBD00320EFE72368D4E700BF25
:101C540090B390F8693010B503F0FF02044603B363
:101C64002268242384F86930136823F00103136085
:101C74002046FFF7F7FD012818D0636AC3B923682B
:101C84005A6822F490425A609A6822F02A029A60B2
:101C94001A6842F0010220461A60BDE81040FFF7BE
:101CA4009FBF80F8682000F09FFBD9E7012010BD9A
:101CB4002046FFF709FFE2E70120704770B50122D3
:101CC40005460E464FF090400221FEF757FC0A20CD
:101CD400FEF7C6FA002202214FF09040FEF74EFCB8
:101CE40031462846FEF744FC0028F9D0002431464A
:101CF4002846FEF73DFCA3B201340028F7D118466C
:101D040070BD00BF4D280DD0522807D04C2801D0FB
:101D14000020704701210648FFF7D0BF0221054883
:101D2400FFF7CCBF10214FF09040FFF7C7BF00BFB3
:101D3400000400480008004810B56FF063048C42AA
:101D4400B8BF0C46642CA8BF64244C281BD052286E
:101D540018D1002CCCBF002201224FF48071164808
:101D6400FEF70CFC154A164B14601649643483FBC9
:101D74000432E317C3EB22130968652202FB134301
:101D84000B6410BD10BD002CCCBF002201224FF407
:101D940000710D48FEF7F2FB0C4A094B14600C4924
:101DA400643483FB0432E317C3EB2213096865220E
:101DB40002FB1343CB6310BD00040048380000202D
:101DC400CBF08D284C00002000080048340000208F
:101DD4008C00002030B50021A7B00C4606A82822AC
:101DE40000F0D8FB214610A85822029401940394D1
:101DF4000494059400F0CEFB0123022510214FF436
:101E04000042099306A84FF4E0130A910D920E9331
:101E140006950C95FEF7C8FB0F2229464FF4806304
:101E240001A801920493029503940594FEF7BAFE67
:101E3400044B139410A81F941093FEF7ABFF27B024
:101E440030BD00BF020020002DE9F04F95B0002402
:101E5400FEF7E2F9FFF7BEFFB54B0E940D940F9415
:101E6400109411945A69B34EB34D42F400225A614E
:101E74005A6902F400220392039A5A6942F4003226
:101E84005A615A6902F400320492049A5A6942F47B
:101E940080225A615B6903F4802322460593222140
:101EA4004FF09040059BFEF769FB22464FF4087102
:101EB400A248FEF763FB22464FF48071A048FEF768
:101EC4005DFB4FF401529F4B9C480D920DA90F945A
:101ED4000E93FEF745FA02230DA998480E940127A4
:101EE4000F940D93FEF73CFA22230DA94FF0904076
:101EF4000F9410940D930E97FEF732FA10230DA948
:101F04004FF090400E940F940D93FEF729FA4FF47E
:101F140008730DA989480D930E970F941094FEF73A
:101F24001FFA0DA986480D970E940F94FEF718FA20
:101F34004FF480730DA982480D930E970F9410945B
:101F4400FEF70EFA224621461720FEF7ADF91720B8
:101F5400FEF7E0F9224603212820FEF7A5F9282000
:101F6400FEF7D8F9784B79499C604FF00C084FF490
:101F7400E132184683E80600DC601C619C61DC6188
:101F84001C625C62C3F81480FFF762FE704AB4609E
:101F9400632344F24F6B3046F36086E804080193F0
:101FA4003461B4614FF4805A099406940D940E94EC
:101FB4000F9410941194129413940A940B940C9407
:101FC40007940894FFF7C6F909A93046CDF824A070
:101FD400FFF764F83046FFF7D9F906A930464FF009
:101FE400600906940894FFF70FFC0DA908223046F7
:101FF4000E940F941194CDF83490FFF771FB304692
:1020040000F0AAF9019B534AEB6028462A60C5F800
:1020140004B0AC602C61AC6109940A940B940C94E8
:102024000694079408940D940E940F9410941194AC
:1020340012941394FFF78EF909A92846CDF824A029
:10204400FFF72CF82846FFF7A1F906A928460694BD
:102054000894FFF7D9FB42460DA92846CDF83490E1
:102064000E940F941194FFF73BFB284600F074F98B
:1020740030460821FEF7E0FF41462846FEF7DCFF24
:102084004D20FFF73FFE344E344D30602C48DFF8CE
:10209400D8B0DFF8D880DFF8D890314C3946824682
:1020A400FFF70CFE28605220FFF72CFE2D4F502125
:1020B40038604C20FFF740FE50215220FFF73CFED1
:1020C4004D20FFF71FFE33683060C31A01215046CC
:1020D400CBF80030FFF7F2FD2B682860C31A5220BA
:1020E400C8F80030FFF70EFE3B6832683860C01A4B
:1020F40041F293139A42C9F800004ED900222021DC
:102104004FF09040FEF73AFA2A6840F6B7339A4205
:1021140000F2A680D8F8003040F68A7203F69F7168
:10212400914240F2AC80153B934200F2B58021E02D
:10213400001002408C0000204C00002000080048E1
:102144000004004800001110CC00002000440040AE
:102154000004004000080040400000203C00002033
:102164001F85EB51440000202C0000202800002093
:10217400300000204D4B4D4A1B68103B19464C2043
:102184001360FFF7D9FD4A4B1B681033484A1946C0
:1021940052201360FFF7D0FD92E7012220214FF077
:1021A4009040FEF7EBF92A6840F6B7339A424BD9D0
:1021B4003B689A421BD23EE0FFF7A4FDC0F57A606B
:1021C40084FB0031C017A0EBA1112D394C20FFF77F
:1021D400B3FD4D20FFF796FDC0F57A6084FB003116
:1021E400C017C0EBA1112D315220FFF7A5FD4D20E2
:1021F400FFF788FDB0F57A6F4FF04D00DCD35FE751
:10220400FFF780FDC0F57A6084FB0031C017C0EB96
:10221400A1112D314C20FFF78FFD4D20FFF772FDEA
:10222400C0F57A6084FB0031C017A0EBA1112D39F1
:102234005220FFF781FD4D20FFF764FDB0F57A6F62
:102244004FF04D00DCD33BE73A689A42F3D82D2196
:102254004C20FFF771FD2D215220FFF76DFD2FE774
:102264003A689A4218D8D9F8003040F68A7203F6D0
:102274009F7191427FF67EAF153B93420CD80B4B76
:102284000A4A1B68103319464C201360FFF754FDAB
:10229400074B1B68103B79E746214C20FFF74CFDA8
:1022A40046215220FFF748FD0AE700BF3400002012
:1022B40038000020402807D0B0F5005F00D07047F8
:1022C40020210448FEF760B9002220210148FEF7CE
:1022D40055B900BF000800480A4B9A6942F0010250
:1022E4009A619A6982B002F001020092009ADA6956
:1022F40042F08052DA61DB6903F080530193019B61
:1023040002B07047001002400368104A934282B042
:1023140010D00F4A934201D002B070470D4BDA69D6
:1023240042F00402DA61DB6903F004030193019BC8
:1023340002B07047074BDA6942F00202DA61DB69E6
:1023440003F002030093009B02B0704700040040B6
:10235400000800400010024010B502681E4988B011
:1023640000238A42049303930593069307931AD098
:102374001A4B9A4201D008B010BD03F50233184835
:102384005A6942F480225A615B6903F48023029300
:102394004FF40072022303A9029C0392049307934F
:1023A400FDF7DEFFE7E703F1804303F504330D484F
:1023B4005A6942F400225A615B6903F400230193D1
:1023C4004FF48072022303A9019C039204930793A0
:1023D400FDF7C6FFCFE700BF00040040000800403F
:1023E400000400480008004870B50168184A88B025
:1023F400002391420493039305930693079301D01A
:1024040008B070BD03F1804303F5043303A9DA690E
:1024140042F40032DA61DA6902F400320192019A7C
:102424005A6942F400325A615B6903F4003302933F
:10243400032207230C2502244FF09040029E0395AB
:10244400049406920793FDF78BFF08B070BD00BF9C
:1024540000440040704700BFFEE700BFFEE700BF36
:10246400FEE700BFFEE700BF704700BF704700BF34
:10247400704700BFFDF7E2BE4020FEF789B800BFF9
:102484004FF40050FEF784B81749184B184A1948FE
:1024940010B4D1F8884044F47004C1F888401C6832
:1024A40044F001041C605C6822405A601A6822F0FF
:1024B400847222F480321A601A6822F480221A602C
:1024C4005A6822F4FE025A60DA6A22F00F02DA62D3
:1024D4001A6B002410404FF0006218639C608A60FD
:1024E4005DF8044B704700BF00ED00E000100240AF
:1024F4000CC07FF8CCFC00FFDFF834D0002103E0EF
:102504000C4B5B58435004310B480C4B42189A4215
:10251400F6D30B4A02E0002342F8043B094B9A42EB
:10252400F9D3FFF7B1FF00F011F8FFF78DFCFEE7D8
:102534000000012004260008000000200C000020F8
:102544000C0000203C010020FEE7000070B50D4E99
:102554000D4CA41BA4100025A54209D10B4E0C4C14
:1025640000F020F8A41BA4100025A54205D170BDDD
:1025740056F8253098470135EEE756F82530984748
:102584000135F2E7FC250008FC250008FC250008BD
:102594000026000802440346934200D1704703F822
:1025A400011BF9E7F8B500BFF8BC08BC9E467047AC
:0C25B400F8B500BFF8BC08BC9E4670479C
:1025C00002030405060708090A0B0C0D0E0F101074
:1025D0000102030405060708090A0B0C0D0E0F1073
:1025E00001040802000000000000000001020304D2
:0C25F000060708090000000001020304B7
:0425FC00B901000819
:042600009501000838
:0C260400010000001000000000127A002D
:04000005080024FDCE
:00000001FF
